{"contracts/FlexDAO.sol":{"FlexDAO":{"abi":[{"inputs":[{"internalType":"address","name":"_oracle","type":"address"},{"internalType":"uint256","name":"_threshold","type":"uint256"}],"stateMutability":"nonpayable","type":"constructor"},{"anonymous":false,"inputs":[{"indexed":true,"internalType":"bytes32","name":"slotKey","type":"bytes32"},{"indexed":false,"internalType":"uint256","name":"intensity","type":"uint256"},{"indexed":false,"internalType":"uint256","name":"participantCount","type":"uint256"},{"indexed":false,"internalType":"uint256","name":"totalShiftedKw","type":"uint256"}],"name":"FlexEventVerified","type":"event"},{"anonymous":false,"inputs":[{"indexed":true,"internalType":"address","name":"participant","type":"address"},{"indexed":false,"internalType":"uint256","name":"amount","type":"uint256"}],"name":"RewardClaimed","type":"event"},{"inputs":[{"internalType":"address","name":"","type":"address"}],"name":"balances","outputs":[{"internalType":"uint256","name":"","type":"uint256"}],"stateMutability":"view","type":"function"},{"inputs":[],"name":"claimRewards","outputs":[],"stateMutability":"nonpayable","type":"function"},{"inputs":[],"name":"getStats","outputs":[{"internalType":"uint256","name":"eventsVerified","type":"uint256"},{"internalType":"uint256","name":"rewardsIssued","type":"uint256"},{"internalType":"uint256","name":"threshold","type":"uint256"},{"internalType":"uint256","name":"attestations","type":"uint256"}],"stateMutability":"view","type":"function"},{"inputs":[],"name":"intensityThreshold","outputs":[{"internalType":"uint256","name":"","type":"uint256"}],"stateMutability":"view","type":"function"},{"inputs":[],"name":"operator","outputs":[{"internalType":"address","name":"","type":"address"}],"stateMutability":"view","type":"function"},{"inputs":[],"name":"oracle","outputs":[{"internalType":"contract IFDCOracle","name":"","type":"address"}],"stateMutability":"view","type":"function"},{"inputs":[{"internalType":"bytes32","name":"","type":"bytes32"}],"name":"processedSlots","outputs":[{"internalType":"bool","name":"","type":"bool"}],"stateMutability":"view","type":"function"},{"inputs":[],"name":"rewardPerKw","outputs":[{"internalType":"uint256","name":"","type":"uint256"}],"stateMutability":"view","type":"function"},{"inputs":[{"internalType":"bytes32","name":"slotKey","type":"bytes32"},{"components":[{"internalType":"address","name":"participant","type":"address"},{"internalType":"uint256","name":"shiftedKw","type":"uint256"}],"internalType":"struct FlexDAO.FlexParticipant[]","name":"participants","type":"tuple[]"}],"name":"submitFlexEvent","outputs":[],"stateMutability":"nonpayable","type":"function"},{"inputs":[],"name":"totalEventsVerified","outputs":[{"internalType":"uint256","name":"","type":"uint256"}],"stateMutability":"view","type":"function"},{"inputs":[],"name":"totalRewardsIssued","outputs":[{"internalType":"uint256","name":"","type":"uint256"}],"stateMutability":"view","type":"function"}],"evm":{"bytecode":{"linkReferences":{},"object":"6080604052600a6003553480156200001657600080fd5b50604051620011253803806200112583398181016040528101906200003c919062000171565b816000806101000a81548173ffffffffffffffffffffffffffffffffffffffff021916908373ffffffffffffffffffffffffffffffffffffffff16021790555033600160006101000a81548173ffffffffffffffffffffffffffffffffffffffff021916908373ffffffffffffffffffffffffffffffffffffffff160217905550806002819055505050620001b8565b600080fd5b600073ffffffffffffffffffffffffffffffffffffffff82169050919050565b6000620000fe82620000d1565b9050919050565b6200011081620000f1565b81146200011c57600080fd5b50565b600081519050620001308162000105565b92915050565b6000819050919050565b6200014b8162000136565b81146200015757600080fd5b50565b6000815190506200016b8162000140565b92915050565b600080604083850312156200018b576200018a620000cc565b5b60006200019b858286016200011f565b9250506020620001ae858286016200015a565b9150509250929050565b610f5d80620001c86000396000f3fe608060405234801561001057600080fd5b50600436106100a95760003560e01c806360fd28291161007157806360fd2829146101525780637c2c0916146101705780637dc0d1d01461018e5780638d76353b146101ac578063c423624d146101ca578063c59d4847146101e8576100a9565b806327e235e3146100ae578063372500ab146100de5780634564b085146100e857806350dc7d2014610104578063570ca73514610134575b600080fd5b6100c860048036038101906100c39190610862565b610209565b6040516100d591906108a8565b60405180910390f35b6100e6610221565b005b61010260048036038101906100fd919061095e565b61033e565b005b61011e600480360381019061011991906109be565b6106cc565b60405161012b9190610a06565b60405180910390f35b61013c6106ec565b6040516101499190610a30565b60405180910390f35b61015a610712565b60405161016791906108a8565b60405180910390f35b610178610718565b60405161018591906108a8565b60405180910390f35b61019661071e565b6040516101a39190610aaa565b60405180910390f35b6101b4610742565b6040516101c191906108a8565b60405180910390f35b6101d2610748565b6040516101df91906108a8565b60405180910390f35b6101f061074e565b6040516102009493929190610ac5565b60405180910390f35b60046020528060005260406000206000915090505481565b6000600460003373ffffffffffffffffffffffffffffffffffffffff1673ffffffffffffffffffffffffffffffffffffffff168152602001908152602001600020549050600081116102a8576040517f08c379a000000000000000000000000000000000000000000000000000000000815260040161029f90610b67565b60405180910390fd5b6000600460003373ffffffffffffffffffffffffffffffffffffffff1673ffffffffffffffffffffffffffffffffffffffff168152602001908152602001600020819055503373ffffffffffffffffffffffffffffffffffffffff167f106f923f993c2149d49b4255ff723acafa1f2d94393f561d3eda32ae348f72418260405161033391906108a8565b60405180910390a250565b600160009054906101000a900473ffffffffffffffffffffffffffffffffffffffff1673ffffffffffffffffffffffffffffffffffffffff163373ffffffffffffffffffffffffffffffffffffffff16146103ce576040517f08c379a00000000000000000000000000000000000000000000000000000000081526004016103c590610bd3565b60405180910390fd5b6005600084815260200190815260200160002060009054906101000a900460ff161561042f576040517f08c379a000000000000000000000000000000000000000000000000000000000815260040161042690610c3f565b60405180910390fd5b60008060009054906101000a900473ffffffffffffffffffffffffffffffffffffffff1673ffffffffffffffffffffffffffffffffffffffff16636960c347856040518263ffffffff1660e01b815260040161048b9190610c6e565b602060405180830381865afa1580156104a8573d6000803e3d6000fd5b505050506040513d601f19601f820116820180604052508101906104cc9190610cb5565b9050600254811015610513576040517f08c379a000000000000000000000000000000000000000000000000000000000815260040161050a90610d54565b60405180910390fd5b60016005600086815260200190815260200160002060006101000a81548160ff0219169083151502179055506006600081548092919061055290610da3565b91905055506000805b848490508110156106855760006103e860035487878581811061058157610580610deb565b5b905060400201602001356105959190610e1a565b61059f9190610e8b565b9050600081036105ae57600190505b80600460008888868181106105c6576105c5610deb565b5b90506040020160000160208101906105de9190610862565b73ffffffffffffffffffffffffffffffffffffffff1673ffffffffffffffffffffffffffffffffffffffff16815260200190815260200160002060008282546106279190610ebc565b9250508190555080600760008282546106409190610ebc565b9250508190555085858381811061065a57610659610deb565b5b905060400201602001358361066f9190610ebc565b925050808061067d90610da3565b91505061055b565b50847f7ff5cd38d23bb170b00a0451bec693b4ba04f67d4adbf337c07a417a02775aae8386869050846040516106bd93929190610ef0565b60405180910390a25050505050565b60056020528060005260406000206000915054906101000a900460ff1681565b600160009054906101000a900473ffffffffffffffffffffffffffffffffffffffff1681565b60025481565b60075481565b60008054906101000a900473ffffffffffffffffffffffffffffffffffffffff1681565b60065481565b60035481565b60008060008060065460075460025460008054906101000a900473ffffffffffffffffffffffffffffffffffffffff1673ffffffffffffffffffffffffffffffffffffffff1663a15b93216040518163ffffffff1660e01b8152600401602060405180830381865afa1580156107c8573d6000803e3d6000fd5b505050506040513d601f19601f820116820180604052508101906107ec9190610cb5565b935093509350935090919293565b600080fd5b600080fd5b600073ffffffffffffffffffffffffffffffffffffffff82169050919050565b600061082f82610804565b9050919050565b61083f81610824565b811461084a57600080fd5b50565b60008135905061085c81610836565b92915050565b600060208284031215610878576108776107fa565b5b60006108868482850161084d565b91505092915050565b6000819050919050565b6108a28161088f565b82525050565b60006020820190506108bd6000830184610899565b92915050565b6000819050919050565b6108d6816108c3565b81146108e157600080fd5b50565b6000813590506108f3816108cd565b92915050565b600080fd5b600080fd5b600080fd5b60008083601f84011261091e5761091d6108f9565b5b8235905067ffffffffffffffff81111561093b5761093a6108fe565b5b60208301915083604082028301111561095757610956610903565b5b9250929050565b600080600060408486031215610977576109766107fa565b5b6000610985868287016108e4565b935050602084013567ffffffffffffffff8111156109a6576109a56107ff565b5b6109b286828701610908565b92509250509250925092565b6000602082840312156109d4576109d36107fa565b5b60006109e2848285016108e4565b91505092915050565b60008115159050919050565b610a00816109eb565b82525050565b6000602082019050610a1b60008301846109f7565b92915050565b610a2a81610824565b82525050565b6000602082019050610a456000830184610a21565b92915050565b6000819050919050565b6000610a70610a6b610a6684610804565b610a4b565b610804565b9050919050565b6000610a8282610a55565b9050919050565b6000610a9482610a77565b9050919050565b610aa481610a89565b82525050565b6000602082019050610abf6000830184610a9b565b92915050565b6000608082019050610ada6000830187610899565b610ae76020830186610899565b610af46040830185610899565b610b016060830184610899565b95945050505050565b600082825260208201905092915050565b7f466c657844414f3a206e6f207265776172647300000000000000000000000000600082015250565b6000610b51601383610b0a565b9150610b5c82610b1b565b602082019050919050565b60006020820190508181036000830152610b8081610b44565b9050919050565b7f466c657844414f3a206e6f74206f70657261746f720000000000000000000000600082015250565b6000610bbd601583610b0a565b9150610bc882610b87565b602082019050919050565b60006020820190508181036000830152610bec81610bb0565b9050919050565b7f466c657844414f3a20736c6f7420616c72656164792070726f63657373656400600082015250565b6000610c29601f83610b0a565b9150610c3482610bf3565b602082019050919050565b60006020820190508181036000830152610c5881610c1c565b9050919050565b610c68816108c3565b82525050565b6000602082019050610c836000830184610c5f565b92915050565b610c928161088f565b8114610c9d57600080fd5b50565b600081519050610caf81610c89565b92915050565b600060208284031215610ccb57610cca6107fa565b5b6000610cd984828501610ca0565b91505092915050565b7f466c657844414f3a20696e74656e736974792062656c6f77207468726573686f60008201527f6c64000000000000000000000000000000000000000000000000000000000000602082015250565b6000610d3e602283610b0a565b9150610d4982610ce2565b604082019050919050565b60006020820190508181036000830152610d6d81610d31565b9050919050565b7f4e487b7100000000000000000000000000000000000000000000000000000000600052601160045260246000fd5b6000610dae8261088f565b91507fffffffffffffffffffffffffffffffffffffffffffffffffffffffffffffffff8203610de057610ddf610d74565b5b600182019050919050565b7f4e487b7100000000000000000000000000000000000000000000000000000000600052603260045260246000fd5b6000610e258261088f565b9150610e308361088f565b9250828202610e3e8161088f565b91508282048414831517610e5557610e54610d74565b5b5092915050565b7f4e487b7100000000000000000000000000000000000000000000000000000000600052601260045260246000fd5b6000610e968261088f565b9150610ea18361088f565b925082610eb157610eb0610e5c565b5b828204905092915050565b6000610ec78261088f565b9150610ed28361088f565b9250828201905080821115610eea57610ee9610d74565b5b92915050565b6000606082019050610f056000830186610899565b610f126020830185610899565b610f1f6040830184610899565b94935050505056fea2646970667358221220070331995feaa03a5e1fe5a4399c8bc9d322835b58bb1803bc9b029cd0cec53c64736f6c63430008120033","opcodes":"PUSH1 0x80 PUSH1 0x40 MSTORE PUSH1 0xA PUSH1 0x3 SSTORE CALLVALUE DUP1 ISZERO PUSH3 0x16 JUMPI PUSH1 0x0 DUP1 REVERT JUMPDEST POP PUSH1 0x40 MLOAD PUSH3 0x1125 CODESIZE SUB DUP1 PUSH3 0x1125 DUP4 CODECOPY DUP2 DUP2 ADD PUSH1 0x40 MSTORE DUP2 ADD SWAP1 PUSH3 0x3C SWAP2 SWAP1 PUSH3 0x171 JUMP JUMPDEST DUP2 PUSH1 0x0 DUP1 PUSH2 0x100 EXP DUP2 SLOAD DUP2 PUSH20 0xFFFFFFFFFFFFFFFFFFFFFFFFFFFFFFFFFFFFFFFF MUL NOT AND SWAP1 DUP4 PUSH20 0xFFFFFFFFFFFFFFFFFFFFFFFFFFFFFFFFFFFFFFFF AND MUL OR SWAP1 SSTORE POP CALLER PUSH1 0x1 PUSH1 0x0 PUSH2 0x100 EXP DUP2 SLOAD DUP2 PUSH20 0xFFFFFFFFFFFFFFFFFFFFFFFFFFFFFFFFFFFFFFFF MUL NOT AND SWAP1 DUP4 PUSH20 0xFFFFFFFFFFFFFFFFFFFFFFFFFFFFFFFFFFFFFFFF AND MUL OR SWAP1 SSTORE POP DUP1 PUSH1 0x2 DUP2 SWAP1 SSTORE POP POP POP PUSH3 0x1B8 JUMP JUMPDEST PUSH1 0x0 DUP1 REVERT JUMPDEST PUSH1 0x0 PUSH20 0xFFFFFFFFFFFFFFFFFFFFFFFFFFFFFFFFFFFFFFFF DUP3 AND SWAP1 POP SWAP2 SWAP1 POP JUMP JUMPDEST PUSH1 0x0 PUSH3 0xFE DUP3 PUSH3 0xD1 JUMP JUMPDEST SWAP1 POP SWAP2 SWAP1 POP JUMP JUMPDEST PUSH3 0x110 DUP2 PUSH3 0xF1 JUMP JUMPDEST DUP2 EQ PUSH3 0x11C JUMPI PUSH1 0x0 DUP1 REVERT JUMPDEST POP JUMP JUMPDEST PUSH1 0x0 DUP2 MLOAD SWAP1 POP PUSH3 0x130 DUP2 PUSH3 0x105 JUMP JUMPDEST SWAP3 SWAP2 POP POP JUMP JUMPDEST PUSH1 0x0 DUP2 SWAP1 POP SWAP2 SWAP1 POP JUMP JUMPDEST PUSH3 0x14B DUP2 PUSH3 0x136 JUMP JUMPDEST DUP2 EQ PUSH3 0x157 JUMPI PUSH1 0x0 DUP1 REVERT JUMPDEST POP JUMP JUMPDEST PUSH1 0x0 DUP2 MLOAD SWAP1 POP PUSH3 0x16B DUP2 PUSH3 0x140 JUMP JUMPDEST SWAP3 SWAP2 POP POP JUMP JUMPDEST PUSH1 0x0 DUP1 PUSH1 0x40 DUP4 DUP6 SUB SLT ISZERO PUSH3 0x18B JUMPI PUSH3 0x18A PUSH3 0xCC JUMP JUMPDEST JUMPDEST PUSH1 0x0 PUSH3 0x19B DUP6 DUP3 DUP7 ADD PUSH3 0x11F JUMP JUMPDEST SWAP3 POP POP PUSH1 0x20 PUSH3 0x1AE DUP6 DUP3 DUP7 ADD PUSH3 0x15A JUMP JUMPDEST SWAP2 POP POP SWAP3 POP SWAP3 SWAP1 POP JUMP JUMPDEST PUSH2 0xF5D DUP1 PUSH3 0x1C8 PUSH1 0x0 CODECOPY PUSH1 0x0 RETURN INVALID PUSH1 0x80 PUSH1 0x40 MSTORE CALLVALUE DUP1 ISZERO PUSH2 0x10 JUMPI PUSH1 0x0 DUP1 REVERT JUMPDEST POP PUSH1 0x4 CALLDATASIZE LT PUSH2 0xA9 JUMPI PUSH1 0x0 CALLDATALOAD PUSH1 0xE0 SHR DUP1 PUSH4 0x60FD2829 GT PUSH2 0x71 JUMPI DUP1 PUSH4 0x60FD2829 EQ PUSH2 0x152 JUMPI DUP1 PUSH4 0x7C2C0916 EQ PUSH2 0x170 JUMPI DUP1 PUSH4 0x7DC0D1D0 EQ PUSH2 0x18E JUMPI DUP1 PUSH4 0x8D76353B EQ PUSH2 0x1AC JUMPI DUP1 PUSH4 0xC423624D EQ PUSH2 0x1CA JUMPI DUP1 PUSH4 0xC59D4847 EQ PUSH2 0x1E8 JUMPI PUSH2 0xA9 JUMP JUMPDEST DUP1 PUSH4 0x27E235E3 EQ PUSH2 0xAE JUMPI DUP1 PUSH4 0x372500AB EQ PUSH2 0xDE JUMPI DUP1 PUSH4 0x4564B085 EQ PUSH2 0xE8 JUMPI DUP1 PUSH4 0x50DC7D20 EQ PUSH2 0x104 JUMPI DUP1 PUSH4 0x570CA735 EQ PUSH2 0x134 JUMPI JUMPDEST PUSH1 0x0 DUP1 REVERT JUMPDEST PUSH2 0xC8 PUSH1 0x4 DUP1 CALLDATASIZE SUB DUP2 ADD SWAP1 PUSH2 0xC3 SWAP2 SWAP1 PUSH2 0x862 JUMP JUMPDEST PUSH2 0x209 JUMP JUMPDEST PUSH1 0x40 MLOAD PUSH2 0xD5 SWAP2 SWAP1 PUSH2 0x8A8 JUMP JUMPDEST PUSH1 0x40 MLOAD DUP1 SWAP2 SUB SWAP1 RETURN JUMPDEST PUSH2 0xE6 PUSH2 0x221 JUMP JUMPDEST STOP JUMPDEST PUSH2 0x102 PUSH1 0x4 DUP1 CALLDATASIZE SUB DUP2 ADD SWAP1 PUSH2 0xFD SWAP2 SWAP1 PUSH2 0x95E JUMP JUMPDEST PUSH2 0x33E JUMP JUMPDEST STOP JUMPDEST PUSH2 0x11E PUSH1 0x4 DUP1 CALLDATASIZE SUB DUP2 ADD SWAP1 PUSH2 0x119 SWAP2 SWAP1 PUSH2 0x9BE JUMP JUMPDEST PUSH2 0x6CC JUMP JUMPDEST PUSH1 0x40 MLOAD PUSH2 0x12B SWAP2 SWAP1 PUSH2 0xA06 JUMP JUMPDEST PUSH1 0x40 MLOAD DUP1 SWAP2 SUB SWAP1 RETURN JUMPDEST PUSH2 0x13C PUSH2 0x6EC JUMP JUMPDEST PUSH1 0x40 MLOAD PUSH2 0x149 SWAP2 SWAP1 PUSH2 0xA30 JUMP JUMPDEST PUSH1 0x40 MLOAD DUP1 SWAP2 SUB SWAP1 RETURN JUMPDEST PUSH2 0x15A PUSH2 0x712 JUMP JUMPDEST PUSH1 0x40 MLOAD PUSH2 0x167 SWAP2 SWAP1 PUSH2 0x8A8 JUMP JUMPDEST PUSH1 0x40 MLOAD DUP1 SWAP2 SUB SWAP1 RETURN JUMPDEST PUSH2 0x178 PUSH2 0x718 JUMP JUMPDEST PUSH1 0x40 MLOAD PUSH2 0x185 SWAP2 SWAP1 PUSH2 0x8A8 JUMP JUMPDEST PUSH1 0x40 MLOAD DUP1 SWAP2 SUB SWAP1 RETURN JUMPDEST PUSH2 0x196 PUSH2 0x71E JUMP JUMPDEST PUSH1 0x40 MLOAD PUSH2 0x1A3 SWAP2 SWAP1 PUSH2 0xAAA JUMP JUMPDEST PUSH1 0x40 MLOAD DUP1 SWAP2 SUB SWAP1 RETURN JUMPDEST PUSH2 0x1B4 PUSH2 0x742 JUMP JUMPDEST PUSH1 0x40 MLOAD PUSH2 0x1C1 SWAP2 SWAP1 PUSH2 0x8A8 JUMP JUMPDEST PUSH1 0x40 MLOAD DUP1 SWAP2 SUB SWAP1 RETURN JUMPDEST PUSH2 0x1D2 PUSH2 0x748 JUMP JUMPDEST PUSH1 0x40 MLOAD PUSH2 0x1DF SWAP2 SWAP1 PUSH2 0x8A8 JUMP JUMPDEST PUSH1 0x40 MLOAD DUP1 SWAP2 SUB SWAP1 RETURN JUMPDEST PUSH2 0x1F0 PUSH2 0x74E JUMP JUMPDEST PUSH1 0x40 MLOAD PUSH2 0x200 SWAP5 SWAP4 SWAP3 SWAP2 SWAP1 PUSH2 0xAC5 JUMP JUMPDEST PUSH1 0x40 MLOAD DUP1 SWAP2 SUB SWAP1 RETURN JUMPDEST PUSH1 0x4 PUSH1 0x20 MSTORE DUP1 PUSH1 0x0 MSTORE PUSH1 0x40 PUSH1 0x0 KECCAK256 PUSH1 0x0 SWAP2 POP SWAP1 POP SLOAD DUP2 JUMP JUMPDEST PUSH1 0x0 PUSH1 0x4 PUSH1 0x0 CALLER PUSH20 0xFFFFFFFFFFFFFFFFFFFFFFFFFFFFFFFFFFFFFFFF AND PUSH20 0xFFFFFFFFFFFFFFFFFFFFFFFFFFFFFFFFFFFFFFFF AND DUP2 MSTORE PUSH1 0x20 ADD SWAP1 DUP2 MSTORE PUSH1 0x20 ADD PUSH1 0x0 KECCAK256 SLOAD SWAP1 POP PUSH1 0x0 DUP2 GT PUSH2 0x2A8 JUMPI PUSH1 0x40 MLOAD PUSH32 0x8C379A000000000000000000000000000000000000000000000000000000000 DUP2 MSTORE PUSH1 0x4 ADD PUSH2 0x29F SWAP1 PUSH2 0xB67 JUMP JUMPDEST PUSH1 0x40 MLOAD DUP1 SWAP2 SUB SWAP1 REVERT JUMPDEST PUSH1 0x0 PUSH1 0x4 PUSH1 0x0 CALLER PUSH20 0xFFFFFFFFFFFFFFFFFFFFFFFFFFFFFFFFFFFFFFFF AND PUSH20 0xFFFFFFFFFFFFFFFFFFFFFFFFFFFFFFFFFFFFFFFF AND DUP2 MSTORE PUSH1 0x20 ADD SWAP1 DUP2 MSTORE PUSH1 0x20 ADD PUSH1 0x0 KECCAK256 DUP2 SWAP1 SSTORE POP CALLER PUSH20 0xFFFFFFFFFFFFFFFFFFFFFFFFFFFFFFFFFFFFFFFF AND PUSH32 0x106F923F993C2149D49B4255FF723ACAFA1F2D94393F561D3EDA32AE348F7241 DUP3 PUSH1 0x40 MLOAD PUSH2 0x333 SWAP2 SWAP1 PUSH2 0x8A8 JUMP JUMPDEST PUSH1 0x40 MLOAD DUP1 SWAP2 SUB SWAP1 LOG2 POP JUMP JUMPDEST PUSH1 0x1 PUSH1 0x0 SWAP1 SLOAD SWAP1 PUSH2 0x100 EXP SWAP1 DIV PUSH20 0xFFFFFFFFFFFFFFFFFFFFFFFFFFFFFFFFFFFFFFFF AND PUSH20 0xFFFFFFFFFFFFFFFFFFFFFFFFFFFFFFFFFFFFFFFF AND CALLER PUSH20 0xFFFFFFFFFFFFFFFFFFFFFFFFFFFFFFFFFFFFFFFF AND EQ PUSH2 0x3CE JUMPI PUSH1 0x40 MLOAD PUSH32 0x8C379A000000000000000000000000000000000000000000000000000000000 DUP2 MSTORE PUSH1 0x4 ADD PUSH2 0x3C5 SWAP1 PUSH2 0xBD3 JUMP JUMPDEST PUSH1 0x40 MLOAD DUP1 SWAP2 SUB SWAP1 REVERT JUMPDEST PUSH1 0x5 PUSH1 0x0 DUP5 DUP2 MSTORE PUSH1 0x20 ADD SWAP1 DUP2 MSTORE PUSH1 0x20 ADD PUSH1 0x0 KECCAK256 PUSH1 0x0 SWAP1 SLOAD SWAP1 PUSH2 0x100 EXP SWAP1 DIV PUSH1 0xFF AND ISZERO PUSH2 0x42F JUMPI PUSH1 0x40 MLOAD PUSH32 0x8C379A000000000000000000000000000000000000000000000000000000000 DUP2 MSTORE PUSH1 0x4 ADD PUSH2 0x426 SWAP1 PUSH2 0xC3F JUMP JUMPDEST PUSH1 0x40 MLOAD DUP1 SWAP2 SUB SWAP1 REVERT JUMPDEST PUSH1 0x0 DUP1 PUSH1 0x0 SWAP1 SLOAD SWAP1 PUSH2 0x100 EXP SWAP1 DIV PUSH20 0xFFFFFFFFFFFFFFFFFFFFFFFFFFFFFFFFFFFFFFFF AND PUSH20 0xFFFFFFFFFFFFFFFFFFFFFFFFFFFFFFFFFFFFFFFF AND PUSH4 0x6960C347 DUP6 PUSH1 0x40 MLOAD DUP3 PUSH4 0xFFFFFFFF AND PUSH1 0xE0 SHL DUP2 MSTORE PUSH1 0x4 ADD PUSH2 0x48B SWAP2 SWAP1 PUSH2 0xC6E JUMP JUMPDEST PUSH1 0x20 PUSH1 0x40 MLOAD DUP1 DUP4 SUB DUP2 DUP7 GAS STATICCALL ISZERO DUP1 ISZERO PUSH2 0x4A8 JUMPI RETURNDATASIZE PUSH1 0x0 DUP1 RETURNDATACOPY RETURNDATASIZE PUSH1 0x0 REVERT JUMPDEST POP POP POP POP PUSH1 0x40 MLOAD RETURNDATASIZE PUSH1 0x1F NOT PUSH1 0x1F DUP3 ADD AND DUP3 ADD DUP1 PUSH1 0x40 MSTORE POP DUP2 ADD SWAP1 PUSH2 0x4CC SWAP2 SWAP1 PUSH2 0xCB5 JUMP JUMPDEST SWAP1 POP PUSH1 0x2 SLOAD DUP2 LT ISZERO PUSH2 0x513 JUMPI PUSH1 0x40 MLOAD PUSH32 0x8C379A000000000000000000000000000000000000000000000000000000000 DUP2 MSTORE PUSH1 0x4 ADD PUSH2 0x50A SWAP1 PUSH2 0xD54 JUMP JUMPDEST PUSH1 0x40 MLOAD DUP1 SWAP2 SUB SWAP1 REVERT JUMPDEST PUSH1 0x1 PUSH1 0x5 PUSH1 0x0 DUP7 DUP2 MSTORE PUSH1 0x20 ADD SWAP1 DUP2 MSTORE PUSH1 0x20 ADD PUSH1 0x0 KECCAK256 PUSH1 0x0 PUSH2 0x100 EXP DUP2 SLOAD DUP2 PUSH1 0xFF MUL NOT AND SWAP1 DUP4 ISZERO ISZERO MUL OR SWAP1 SSTORE POP PUSH1 0x6 PUSH1 0x0 DUP2 SLOAD DUP1 SWAP3 SWAP2 SWAP1 PUSH2 0x552 SWAP1 PUSH2 0xDA3 JUMP JUMPDEST SWAP2 SWAP1 POP SSTORE POP PUSH1 0x0 DUP1 JUMPDEST DUP5 DUP5 SWAP1 POP DUP2 LT ISZERO PUSH2 0x685 JUMPI PUSH1 0x0 PUSH2 0x3E8 PUSH1 0x3 SLOAD DUP8 DUP8 DUP6 DUP2 DUP2 LT PUSH2 0x581 JUMPI PUSH2 0x580 PUSH2 0xDEB JUMP JUMPDEST JUMPDEST SWAP1 POP PUSH1 0x40 MUL ADD PUSH1 0x20 ADD CALLDATALOAD PUSH2 0x595 SWAP2 SWAP1 PUSH2 0xE1A JUMP JUMPDEST PUSH2 0x59F SWAP2 SWAP1 PUSH2 0xE8B JUMP JUMPDEST SWAP1 POP PUSH1 0x0 DUP2 SUB PUSH2 0x5AE JUMPI PUSH1 0x1 SWAP1 POP JUMPDEST DUP1 PUSH1 0x4 PUSH1 0x0 DUP9 DUP9 DUP7 DUP2 DUP2 LT PUSH2 0x5C6 JUMPI PUSH2 0x5C5 PUSH2 0xDEB JUMP JUMPDEST JUMPDEST SWAP1 POP PUSH1 0x40 MUL ADD PUSH1 0x0 ADD PUSH1 0x20 DUP2 ADD SWAP1 PUSH2 0x5DE SWAP2 SWAP1 PUSH2 0x862 JUMP JUMPDEST PUSH20 0xFFFFFFFFFFFFFFFFFFFFFFFFFFFFFFFFFFFFFFFF AND PUSH20 0xFFFFFFFFFFFFFFFFFFFFFFFFFFFFFFFFFFFFFFFF AND DUP2 MSTORE PUSH1 0x20 ADD SWAP1 DUP2 MSTORE PUSH1 0x20 ADD PUSH1 0x0 KECCAK256 PUSH1 0x0 DUP3 DUP3 SLOAD PUSH2 0x627 SWAP2 SWAP1 PUSH2 0xEBC JUMP JUMPDEST SWAP3 POP POP DUP2 SWAP1 SSTORE POP DUP1 PUSH1 0x7 PUSH1 0x0 DUP3 DUP3 SLOAD PUSH2 0x640 SWAP2 SWAP1 PUSH2 0xEBC JUMP JUMPDEST SWAP3 POP POP DUP2 SWAP1 SSTORE POP DUP6 DUP6 DUP4 DUP2 DUP2 LT PUSH2 0x65A JUMPI PUSH2 0x659 PUSH2 0xDEB JUMP JUMPDEST JUMPDEST SWAP1 POP PUSH1 0x40 MUL ADD PUSH1 0x20 ADD CALLDATALOAD DUP4 PUSH2 0x66F SWAP2 SWAP1 PUSH2 0xEBC JUMP JUMPDEST SWAP3 POP POP DUP1 DUP1 PUSH2 0x67D SWAP1 PUSH2 0xDA3 JUMP JUMPDEST SWAP2 POP POP PUSH2 0x55B JUMP JUMPDEST POP DUP5 PUSH32 0x7FF5CD38D23BB170B00A0451BEC693B4BA04F67D4ADBF337C07A417A02775AAE DUP4 DUP7 DUP7 SWAP1 POP DUP5 PUSH1 0x40 MLOAD PUSH2 0x6BD SWAP4 SWAP3 SWAP2 SWAP1 PUSH2 0xEF0 JUMP JUMPDEST PUSH1 0x40 MLOAD DUP1 SWAP2 SUB SWAP1 LOG2 POP POP POP POP POP JUMP JUMPDEST PUSH1 0x5 PUSH1 0x20 MSTORE DUP1 PUSH1 0x0 MSTORE PUSH1 0x40 PUSH1 0x0 KECCAK256 PUSH1 0x0 SWAP2 POP SLOAD SWAP1 PUSH2 0x100 EXP SWAP1 DIV PUSH1 0xFF AND DUP2 JUMP JUMPDEST PUSH1 0x1 PUSH1 0x0 SWAP1 SLOAD SWAP1 PUSH2 0x100 EXP SWAP1 DIV PUSH20 0xFFFFFFFFFFFFFFFFFFFFFFFFFFFFFFFFFFFFFFFF AND DUP2 JUMP JUMPDEST PUSH1 0x2 SLOAD DUP2 JUMP JUMPDEST PUSH1 0x7 SLOAD DUP2 JUMP JUMPDEST PUSH1 0x0 DUP1 SLOAD SWAP1 PUSH2 0x100 EXP SWAP1 DIV PUSH20 0xFFFFFFFFFFFFFFFFFFFFFFFFFFFFFFFFFFFFFFFF AND DUP2 JUMP JUMPDEST PUSH1 0x6 SLOAD DUP2 JUMP JUMPDEST PUSH1 0x3 SLOAD DUP2 JUMP JUMPDEST PUSH1 0x0 DUP1 PUSH1 0x0 DUP1 PUSH1 0x6 SLOAD PUSH1 0x7 SLOAD PUSH1 0x2 SLOAD PUSH1 0x0 DUP1 SLOAD SWAP1 PUSH2 0x100 EXP SWAP1 DIV PUSH20 0xFFFFFFFFFFFFFFFFFFFFFFFFFFFFFFFFFFFFFFFF AND PUSH20 0xFFFFFFFFFFFFFFFFFFFFFFFFFFFFFFFFFFFFFFFF AND PUSH4 0xA15B9321 PUSH1 0x40 MLOAD DUP2 PUSH4 0xFFFFFFFF AND PUSH1 0xE0 SHL DUP2 MSTORE PUSH1 0x4 ADD PUSH1 0x20 PUSH1 0x40 MLOAD DUP1 DUP4 SUB DUP2 DUP7 GAS STATICCALL ISZERO DUP1 ISZERO PUSH2 0x7C8 JUMPI RETURNDATASIZE PUSH1 0x0 DUP1 RETURNDATACOPY RETURNDATASIZE PUSH1 0x0 REVERT JUMPDEST POP POP POP POP PUSH1 0x40 MLOAD RETURNDATASIZE PUSH1 0x1F NOT PUSH1 0x1F DUP3 ADD AND DUP3 ADD DUP1 PUSH1 0x40 MSTORE POP DUP2 ADD SWAP1 PUSH2 0x7EC SWAP2 SWAP1 PUSH2 0xCB5 JUMP JUMPDEST SWAP4 POP SWAP4 POP SWAP4 POP SWAP4 POP SWAP1 SWAP2 SWAP3 SWAP4 JUMP JUMPDEST PUSH1 0x0 DUP1 REVERT JUMPDEST PUSH1 0x0 DUP1 REVERT JUMPDEST PUSH1 0x0 PUSH20 0xFFFFFFFFFFFFFFFFFFFFFFFFFFFFFFFFFFFFFFFF DUP3 AND SWAP1 POP SWAP2 SWAP1 POP JUMP JUMPDEST PUSH1 0x0 PUSH2 0x82F DUP3 PUSH2 0x804 JUMP JUMPDEST SWAP1 POP SWAP2 SWAP1 POP JUMP JUMPDEST PUSH2 0x83F DUP2 PUSH2 0x824 JUMP JUMPDEST DUP2 EQ PUSH2 0x84A JUMPI PUSH1 0x0 DUP1 REVERT JUMPDEST POP JUMP JUMPDEST PUSH1 0x0 DUP2 CALLDATALOAD SWAP1 POP PUSH2 0x85C DUP2 PUSH2 0x836 JUMP JUMPDEST SWAP3 SWAP2 POP POP JUMP JUMPDEST PUSH1 0x0 PUSH1 0x20 DUP3 DUP5 SUB SLT ISZERO PUSH2 0x878 JUMPI PUSH2 0x877 PUSH2 0x7FA JUMP JUMPDEST JUMPDEST PUSH1 0x0 PUSH2 0x886 DUP5 DUP3 DUP6 ADD PUSH2 0x84D JUMP JUMPDEST SWAP2 POP POP SWAP3 SWAP2 POP POP JUMP JUMPDEST PUSH1 0x0 DUP2 SWAP1 POP SWAP2 SWAP1 POP JUMP JUMPDEST PUSH2 0x8A2 DUP2 PUSH2 0x88F JUMP JUMPDEST DUP3 MSTORE POP POP JUMP JUMPDEST PUSH1 0x0 PUSH1 0x20 DUP3 ADD SWAP1 POP PUSH2 0x8BD PUSH1 0x0 DUP4 ADD DUP5 PUSH2 0x899 JUMP JUMPDEST SWAP3 SWAP2 POP POP JUMP JUMPDEST PUSH1 0x0 DUP2 SWAP1 POP SWAP2 SWAP1 POP JUMP JUMPDEST PUSH2 0x8D6 DUP2 PUSH2 0x8C3 JUMP JUMPDEST DUP2 EQ PUSH2 0x8E1 JUMPI PUSH1 0x0 DUP1 REVERT JUMPDEST POP JUMP JUMPDEST PUSH1 0x0 DUP2 CALLDATALOAD SWAP1 POP PUSH2 0x8F3 DUP2 PUSH2 0x8CD JUMP JUMPDEST SWAP3 SWAP2 POP POP JUMP JUMPDEST PUSH1 0x0 DUP1 REVERT JUMPDEST PUSH1 0x0 DUP1 REVERT JUMPDEST PUSH1 0x0 DUP1 REVERT JUMPDEST PUSH1 0x0 DUP1 DUP4 PUSH1 0x1F DUP5 ADD SLT PUSH2 0x91E JUMPI PUSH2 0x91D PUSH2 0x8F9 JUMP JUMPDEST JUMPDEST DUP3 CALLDATALOAD SWAP1 POP PUSH8 0xFFFFFFFFFFFFFFFF DUP2 GT ISZERO PUSH2 0x93B JUMPI PUSH2 0x93A PUSH2 0x8FE JUMP JUMPDEST JUMPDEST PUSH1 0x20 DUP4 ADD SWAP2 POP DUP4 PUSH1 0x40 DUP3 MUL DUP4 ADD GT ISZERO PUSH2 0x957 JUMPI PUSH2 0x956 PUSH2 0x903 JUMP JUMPDEST JUMPDEST SWAP3 POP SWAP3 SWAP1 POP JUMP JUMPDEST PUSH1 0x0 DUP1 PUSH1 0x0 PUSH1 0x40 DUP5 DUP7 SUB SLT ISZERO PUSH2 0x977 JUMPI PUSH2 0x976 PUSH2 0x7FA JUMP JUMPDEST JUMPDEST PUSH1 0x0 PUSH2 0x985 DUP7 DUP3 DUP8 ADD PUSH2 0x8E4 JUMP JUMPDEST SWAP4 POP POP PUSH1 0x20 DUP5 ADD CALLDATALOAD PUSH8 0xFFFFFFFFFFFFFFFF DUP2 GT ISZERO PUSH2 0x9A6 JUMPI PUSH2 0x9A5 PUSH2 0x7FF JUMP JUMPDEST JUMPDEST PUSH2 0x9B2 DUP7 DUP3 DUP8 ADD PUSH2 0x908 JUMP JUMPDEST SWAP3 POP SWAP3 POP POP SWAP3 POP SWAP3 POP SWAP3 JUMP JUMPDEST PUSH1 0x0 PUSH1 0x20 DUP3 DUP5 SUB SLT ISZERO PUSH2 0x9D4 JUMPI PUSH2 0x9D3 PUSH2 0x7FA JUMP JUMPDEST JUMPDEST PUSH1 0x0 PUSH2 0x9E2 DUP5 DUP3 DUP6 ADD PUSH2 0x8E4 JUMP JUMPDEST SWAP2 POP POP SWAP3 SWAP2 POP POP JUMP JUMPDEST PUSH1 0x0 DUP2 ISZERO ISZERO SWAP1 POP SWAP2 SWAP1 POP JUMP JUMPDEST PUSH2 0xA00 DUP2 PUSH2 0x9EB JUMP JUMPDEST DUP3 MSTORE POP POP JUMP JUMPDEST PUSH1 0x0 PUSH1 0x20 DUP3 ADD SWAP1 POP PUSH2 0xA1B PUSH1 0x0 DUP4 ADD DUP5 PUSH2 0x9F7 JUMP JUMPDEST SWAP3 SWAP2 POP POP JUMP JUMPDEST PUSH2 0xA2A DUP2 PUSH2 0x824 JUMP JUMPDEST DUP3 MSTORE POP POP JUMP JUMPDEST PUSH1 0x0 PUSH1 0x20 DUP3 ADD SWAP1 POP PUSH2 0xA45 PUSH1 0x0 DUP4 ADD DUP5 PUSH2 0xA21 JUMP JUMPDEST SWAP3 SWAP2 POP POP JUMP JUMPDEST PUSH1 0x0 DUP2 SWAP1 POP SWAP2 SWAP1 POP JUMP JUMPDEST PUSH1 0x0 PUSH2 0xA70 PUSH2 0xA6B PUSH2 0xA66 DUP5 PUSH2 0x804 JUMP JUMPDEST PUSH2 0xA4B JUMP JUMPDEST PUSH2 0x804 JUMP JUMPDEST SWAP1 POP SWAP2 SWAP1 POP JUMP JUMPDEST PUSH1 0x0 PUSH2 0xA82 DUP3 PUSH2 0xA55 JUMP JUMPDEST SWAP1 POP SWAP2 SWAP1 POP JUMP JUMPDEST PUSH1 0x0 PUSH2 0xA94 DUP3 PUSH2 0xA77 JUMP JUMPDEST SWAP1 POP SWAP2 SWAP1 POP JUMP JUMPDEST PUSH2 0xAA4 DUP2 PUSH2 0xA89 JUMP JUMPDEST DUP3 MSTORE POP POP JUMP JUMPDEST PUSH1 0x0 PUSH1 0x20 DUP3 ADD SWAP1 POP PUSH2 0xABF PUSH1 0x0 DUP4 ADD DUP5 PUSH2 0xA9B JUMP JUMPDEST SWAP3 SWAP2 POP POP JUMP JUMPDEST PUSH1 0x0 PUSH1 0x80 DUP3 ADD SWAP1 POP PUSH2 0xADA PUSH1 0x0 DUP4 ADD DUP8 PUSH2 0x899 JUMP JUMPDEST PUSH2 0xAE7 PUSH1 0x20 DUP4 ADD DUP7 PUSH2 0x899 JUMP JUMPDEST PUSH2 0xAF4 PUSH1 0x40 DUP4 ADD DUP6 PUSH2 0x899 JUMP JUMPDEST PUSH2 0xB01 PUSH1 0x60 DUP4 ADD DUP5 PUSH2 0x899 JUMP JUMPDEST SWAP6 SWAP5 POP POP POP POP POP JUMP JUMPDEST PUSH1 0x0 DUP3 DUP3 MSTORE PUSH1 0x20 DUP3 ADD SWAP1 POP SWAP3 SWAP2 POP POP JUMP JUMPDEST PUSH32 0x466C657844414F3A206E6F207265776172647300000000000000000000000000 PUSH1 0x0 DUP3 ADD MSTORE POP JUMP JUMPDEST PUSH1 0x0 PUSH2 0xB51 PUSH1 0x13 DUP4 PUSH2 0xB0A JUMP JUMPDEST SWAP2 POP PUSH2 0xB5C DUP3 PUSH2 0xB1B JUMP JUMPDEST PUSH1 0x20 DUP3 ADD SWAP1 POP SWAP2 SWAP1 POP JUMP JUMPDEST PUSH1 0x0 PUSH1 0x20 DUP3 ADD SWAP1 POP DUP2 DUP2 SUB PUSH1 0x0 DUP4 ADD MSTORE PUSH2 0xB80 DUP2 PUSH2 0xB44 JUMP JUMPDEST SWAP1 POP SWAP2 SWAP1 POP JUMP JUMPDEST PUSH32 0x466C657844414F3A206E6F74206F70657261746F720000000000000000000000 PUSH1 0x0 DUP3 ADD MSTORE POP JUMP JUMPDEST PUSH1 0x0 PUSH2 0xBBD PUSH1 0x15 DUP4 PUSH2 0xB0A JUMP JUMPDEST SWAP2 POP PUSH2 0xBC8 DUP3 PUSH2 0xB87 JUMP JUMPDEST PUSH1 0x20 DUP3 ADD SWAP1 POP SWAP2 SWAP1 POP JUMP JUMPDEST PUSH1 0x0 PUSH1 0x20 DUP3 ADD SWAP1 POP DUP2 DUP2 SUB PUSH1 0x0 DUP4 ADD MSTORE PUSH2 0xBEC DUP2 PUSH2 0xBB0 JUMP JUMPDEST SWAP1 POP SWAP2 SWAP1 POP JUMP JUMPDEST PUSH32 0x466C657844414F3A20736C6F7420616C72656164792070726F63657373656400 PUSH1 0x0 DUP3 ADD MSTORE POP JUMP JUMPDEST PUSH1 0x0 PUSH2 0xC29 PUSH1 0x1F DUP4 PUSH2 0xB0A JUMP JUMPDEST SWAP2 POP PUSH2 0xC34 DUP3 PUSH2 0xBF3 JUMP JUMPDEST PUSH1 0x20 DUP3 ADD SWAP1 POP SWAP2 SWAP1 POP JUMP JUMPDEST PUSH1 0x0 PUSH1 0x20 DUP3 ADD SWAP1 POP DUP2 DUP2 SUB PUSH1 0x0 DUP4 ADD MSTORE PUSH2 0xC58 DUP2 PUSH2 0xC1C JUMP JUMPDEST SWAP1 POP SWAP2 SWAP1 POP JUMP JUMPDEST PUSH2 0xC68 DUP2 PUSH2 0x8C3 JUMP JUMPDEST DUP3 MSTORE POP POP JUMP JUMPDEST PUSH1 0x0 PUSH1 0x20 DUP3 ADD SWAP1 POP PUSH2 0xC83 PUSH1 0x0 DUP4 ADD DUP5 PUSH2 0xC5F JUMP JUMPDEST SWAP3 SWAP2 POP POP JUMP JUMPDEST PUSH2 0xC92 DUP2 PUSH2 0x88F JUMP JUMPDEST DUP2 EQ PUSH2 0xC9D JUMPI PUSH1 0x0 DUP1 REVERT JUMPDEST POP JUMP JUMPDEST PUSH1 0x0 DUP2 MLOAD SWAP1 POP PUSH2 0xCAF DUP2 PUSH2 0xC89 JUMP JUMPDEST SWAP3 SWAP2 POP POP JUMP JUMPDEST PUSH1 0x0 PUSH1 0x20 DUP3 DUP5 SUB SLT ISZERO PUSH2 0xCCB JUMPI PUSH2 0xCCA PUSH2 0x7FA JUMP JUMPDEST JUMPDEST PUSH1 0x0 PUSH2 0xCD9 DUP5 DUP3 DUP6 ADD PUSH2 0xCA0 JUMP JUMPDEST SWAP2 POP POP SWAP3 SWAP2 POP POP JUMP JUMPDEST PUSH32 0x466C657844414F3A20696E74656E736974792062656C6F77207468726573686F PUSH1 0x0 DUP3 ADD MSTORE PUSH32 0x6C64000000000000000000000000000000000000000000000000000000000000 PUSH1 0x20 DUP3 ADD MSTORE POP JUMP JUMPDEST PUSH1 0x0 PUSH2 0xD3E PUSH1 0x22 DUP4 PUSH2 0xB0A JUMP JUMPDEST SWAP2 POP PUSH2 0xD49 DUP3 PUSH2 0xCE2 JUMP JUMPDEST PUSH1 0x40 DUP3 ADD SWAP1 POP SWAP2 SWAP1 POP JUMP JUMPDEST PUSH1 0x0 PUSH1 0x20 DUP3 ADD SWAP1 POP DUP2 DUP2 SUB PUSH1 0x0 DUP4 ADD MSTORE PUSH2 0xD6D DUP2 PUSH2 0xD31 JUMP JUMPDEST SWAP1 POP SWAP2 SWAP1 POP JUMP JUMPDEST PUSH32 0x4E487B7100000000000000000000000000000000000000000000000000000000 PUSH1 0x0 MSTORE PUSH1 0x11 PUSH1 0x4 MSTORE PUSH1 0x24 PUSH1 0x0 REVERT JUMPDEST PUSH1 0x0 PUSH2 0xDAE DUP3 PUSH2 0x88F JUMP JUMPDEST SWAP2 POP PUSH32 0xFFFFFFFFFFFFFFFFFFFFFFFFFFFFFFFFFFFFFFFFFFFFFFFFFFFFFFFFFFFFFFFF DUP3 SUB PUSH2 0xDE0 JUMPI PUSH2 0xDDF PUSH2 0xD74 JUMP JUMPDEST JUMPDEST PUSH1 0x1 DUP3 ADD SWAP1 POP SWAP2 SWAP1 POP JUMP JUMPDEST PUSH32 0x4E487B7100000000000000000000000000000000000000000000000000000000 PUSH1 0x0 MSTORE PUSH1 0x32 PUSH1 0x4 MSTORE PUSH1 0x24 PUSH1 0x0 REVERT JUMPDEST PUSH1 0x0 PUSH2 0xE25 DUP3 PUSH2 0x88F JUMP JUMPDEST SWAP2 POP PUSH2 0xE30 DUP4 PUSH2 0x88F JUMP JUMPDEST SWAP3 POP DUP3 DUP3 MUL PUSH2 0xE3E DUP2 PUSH2 0x88F JUMP JUMPDEST SWAP2 POP DUP3 DUP3 DIV DUP5 EQ DUP4 ISZERO OR PUSH2 0xE55 JUMPI PUSH2 0xE54 PUSH2 0xD74 JUMP JUMPDEST JUMPDEST POP SWAP3 SWAP2 POP POP JUMP JUMPDEST PUSH32 0x4E487B7100000000000000000000000000000000000000000000000000000000 PUSH1 0x0 MSTORE PUSH1 0x12 PUSH1 0x4 MSTORE PUSH1 0x24 PUSH1 0x0 REVERT JUMPDEST PUSH1 0x0 PUSH2 0xE96 DUP3 PUSH2 0x88F JUMP JUMPDEST SWAP2 POP PUSH2 0xEA1 DUP4 PUSH2 0x88F JUMP JUMPDEST SWAP3 POP DUP3 PUSH2 0xEB1 JUMPI PUSH2 0xEB0 PUSH2 0xE5C JUMP JUMPDEST JUMPDEST DUP3 DUP3 DIV SWAP1 POP SWAP3 SWAP2 POP POP JUMP JUMPDEST PUSH1 0x0 PUSH2 0xEC7 DUP3 PUSH2 0x88F JUMP JUMPDEST SWAP2 POP PUSH2 0xED2 DUP4 PUSH2 0x88F JUMP JUMPDEST SWAP3 POP DUP3 DUP3 ADD SWAP1 POP DUP1 DUP3 GT ISZERO PUSH2 0xEEA JUMPI PUSH2 0xEE9 PUSH2 0xD74 JUMP JUMPDEST JUMPDEST SWAP3 SWAP2 POP POP JUMP JUMPDEST PUSH1 0x0 PUSH1 0x60 DUP3 ADD SWAP1 POP PUSH2 0xF05 PUSH1 0x0 DUP4 ADD DUP7 PUSH2 0x899 JUMP JUMPDEST PUSH2 0xF12 PUSH1 0x20 DUP4 ADD DUP6 PUSH2 0x899 JUMP JUMPDEST PUSH2 0xF1F PUSH1 0x40 DUP4 ADD DUP5 PUSH2 0x899 JUMP JUMPDEST SWAP5 SWAP4 POP POP POP POP JUMP INVALID LOG2 PUSH5 0x6970667358 0x22 SLT KECCAK256 SMOD SUB BALANCE SWAP10 0x5F 0xEA LOG0 GASPRICE 0x5E 0x1F 0xE5 LOG4 CODECOPY SWAP13 DUP12 0xC9 0xD3 0x22 DUP4 JUMPDEST PC 0xBB XOR SUB 0xBC SWAP12 MUL SWAP13 0xD0 0xCE 0xC5 EXTCODECOPY PUSH5 0x736F6C6343 STOP ADDMOD SLT STOP CALLER "},"methodIdentifiers":{"balances(address)":"27e235e3","claimRewards()":"372500ab","getStats()":"c59d4847","intensityThreshold()":"60fd2829","operator()":"570ca735","oracle()":"7dc0d1d0","processedSlots(bytes32)":"50dc7d20","rewardPerKw()":"c423624d","submitFlexEvent(bytes32,(address,uint256)[])":"4564b085","totalEventsVerified()":"8d76353b","totalRewardsIssued()":"7c2c0916"}}}}}