{
  "_format": "hh-sol-artifact-1",
  "contractName": "FDCShim",
  "sourceName": "contracts/FDCShim.sol",
  "abi": [
    {
      "inputs": [],
      "stateMutability": "nonpayable",
      "type": "constructor"
    },
    {
      "anonymous": false,
      "inputs": [
        {
          "indexed": true,
          "internalType": "bytes32",
          "name": "key",
          "type": "bytes32"
        },
        {
          "indexed": false,
          "internalType": "uint256",
          "name": "intensity",
          "type": "uint256"
        }
      ],
      "name": "AttestationSubmitted",
      "type": "event"
    },
    {
      "inputs": [],
      "name": "attestationCount",
      "outputs": [
        {
          "internalType": "uint256",
          "name": "",
          "type": "uint256"
        }
      ],
      "stateMutability": "view",
      "type": "function"
    },
    {
      "inputs": [
        {
          "internalType": "bytes32",
          "name": "key",
          "type": "bytes32"
        }
      ],
      "name": "getIntensity",
      "outputs": [
        {
          "internalType": "uint256",
          "name": "",
          "type": "uint256"
        }
      ],
      "stateMutability": "view",
      "type": "function"
    },
    {
      "inputs": [],
      "name": "owner",
      "outputs": [
        {
          "internalType": "address",
          "name": "",
          "type": "address"
        }
      ],
      "stateMutability": "view",
      "type": "function"
    },
    {
      "inputs": [
        {
          "internalType": "bytes32",
          "name": "key",
          "type": "bytes32"
        },
        {
          "internalType": "uint256",
          "name": "intensity",
          "type": "uint256"
        }
      ],
      "name": "submitAttestation",
      "outputs": [],
      "stateMutability": "nonpayable",
      "type": "function"
    }
  ],
  "bytecode": "0x608060405234801561001057600080fd5b50336000806101000a81548173ffffffffffffffffffffffffffffffffffffffff021916908373ffffffffffffffffffffffffffffffffffffffff1602179055506105ca806100606000396000f3fe608060405234801561001057600080fd5b506004361061004c5760003560e01c80633a65d1a0146100515780636960c3471461006d5780638da5cb5b1461009d578063a15b9321146100bb575b600080fd5b61006b60048036038101906100669190610341565b6100d9565b005b61008760048036038101906100829190610381565b610225565b60405161009491906103bd565b60405180910390f35b6100a56102a2565b6040516100b29190610419565b60405180910390f35b6100c36102c6565b6040516100d091906103bd565b60405180910390f35b60008054906101000a900473ffffffffffffffffffffffffffffffffffffffff1673ffffffffffffffffffffffffffffffffffffffff163373ffffffffffffffffffffffffffffffffffffffff1614610167576040517f08c379a000000000000000000000000000000000000000000000000000000000815260040161015e90610491565b60405180910390fd5b6002600083815260200190815260200160002060009054906101000a900460ff166101d1576003600081548092919061019f906104e0565b919050555060016002600084815260200190815260200160002060006101000a81548160ff0219169083151502179055505b806001600084815260200190815260200160002081905550817fa4f0e3b961c27498f027193e536b131669fe57ad79b681ea5716c251930cbd598260405161021991906103bd565b60405180910390a25050565b60006002600083815260200190815260200160002060009054906101000a900460ff16610287576040517f08c379a000000000000000000000000000000000000000000000000000000000815260040161027e90610574565b60405180910390fd5b60016000838152602001908152602001600020549050919050565b60008054906101000a900473ffffffffffffffffffffffffffffffffffffffff1681565b6000600354905090565b600080fd5b6000819050919050565b6102e8816102d5565b81146102f357600080fd5b50565b600081359050610305816102df565b92915050565b6000819050919050565b61031e8161030b565b811461032957600080fd5b50565b60008135905061033b81610315565b92915050565b60008060408385031215610358576103576102d0565b5b6000610366858286016102f6565b92505060206103778582860161032c565b9150509250929050565b600060208284031215610397576103966102d0565b5b60006103a5848285016102f6565b91505092915050565b6103b78161030b565b82525050565b60006020820190506103d260008301846103ae565b92915050565b600073ffffffffffffffffffffffffffffffffffffffff82169050919050565b6000610403826103d8565b9050919050565b610413816103f8565b82525050565b600060208201905061042e600083018461040a565b92915050565b600082825260208201905092915050565b7f4644435368696d3a206e6f74206f776e65720000000000000000000000000000600082015250565b600061047b601283610434565b915061048682610445565b602082019050919050565b600060208201905081810360008301526104aa8161046e565b9050919050565b7f4e487b7100000000000000000000000000000000000000000000000000000000600052601160045260246000fd5b60006104eb8261030b565b91507fffffffffffffffffffffffffffffffffffffffffffffffffffffffffffffffff820361051d5761051c6104b1565b5b600182019050919050565b7f4644435368696d3a206b6579206e6f7420666f756e6400000000000000000000600082015250565b600061055e601683610434565b915061056982610528565b602082019050919050565b6000602082019050818103600083015261058d81610551565b905091905056fea264697066735822122027be7634352750857d0df3acfe74117f4d00671b60fed2984fb44966822b1e7e64736f6c63430008120033",
  "linkReferences": {},
  "deployedLinkReferences": {}
}