{
  "_format": "hh-sol-artifact-1",
  "contractName": "FlexDAO",
  "sourceName": "contracts/FlexDAO.sol",
  "abi": [
    {
      "inputs": [
        {
          "internalType": "address",
          "name": "_oracle",
          "type": "address"
        },
        {
          "internalType": "uint256",
          "name": "_threshold",
          "type": "uint256"
        }
      ],
      "stateMutability": "nonpayable",
      "type": "constructor"
    },
    {
      "anonymous": false,
      "inputs": [
        {
          "indexed": true,
          "internalType": "bytes32",
          "name": "slotKey",
          "type": "bytes32"
        },
        {
          "indexed": false,
          "internalType": "uint256",
          "name": "intensity",
          "type": "uint256"
        },
        {
          "indexed": false,
          "internalType": "uint256",
          "name": "participantCount",
          "type": "uint256"
        },
        {
          "indexed": false,
          "internalType": "uint256",
          "name": "totalShiftedKw",
          "type": "uint256"
        }
      ],
      "name": "FlexEventVerified",
      "type": "event"
    },
    {
      "anonymous": false,
      "inputs": [
        {
          "indexed": true,
          "internalType": "address",
          "name": "participant",
          "type": "address"
        },
        {
          "indexed": false,
          "internalType": "uint256",
          "name": "amount",
          "type": "uint256"
        }
      ],
      "name": "RewardClaimed",
      "type": "event"
    },
    {
      "inputs": [
        {
          "internalType": "address",
          "name": "",
          "type": "address"
        }
      ],
      "name": "balances",
      "outputs": [
        {
          "internalType": "uint256",
          "name": "",
          "type": "uint256"
        }
      ],
      "stateMutability": "view",
      "type": "function"
    },
    {
      "inputs": [],
      "name": "claimRewards",
      "outputs": [],
      "stateMutability": "nonpayable",
      "type": "function"
    },
    {
      "inputs": [],
      "name": "getStats",
      "outputs": [
        {
          "internalType": "uint256",
          "name": "eventsVerified",
          "type": "uint256"
        },
        {
          "internalType": "uint256",
          "name": "rewardsIssued",
          "type": "uint256"
        },
        {
          "internalType": "uint256",
          "name": "threshold",
          "type": "uint256"
        },
        {
          "internalType": "uint256",
          "name": "attestations",
          "type": "uint256"
        }
      ],
      "stateMutability": "view",
      "type": "function"
    },
    {
      "inputs": [],
      "name": "intensityThreshold",
      "outputs": [
        {
          "internalType": "uint256",
          "name": "",
          "type": "uint256"
        }
      ],
      "stateMutability": "view",
      "type": "function"
    },
    {
      "inputs": [],
      "name": "operator",
      "outputs": [
        {
          "internalType": "address",
          "name": "",
          "type": "address"
        }
      ],
      "stateMutability": "view",
      "type": "function"
    },
    {
      "inputs": [],
      "name": "oracle",
      "outputs": [
        {
          "internalType": "contract IFDCOracle",
          "name": "",
          "type": "address"
        }
      ],
      "stateMutability": "view",
      "type": "function"
    },
    {
      "inputs": [
        {
          "internalType": "bytes32",
          "name": "",
          "type": "bytes32"
        }
      ],
      "name": "processedSlots",
      "outputs": [
        {
          "internalType": "bool",
          "name": "",
          "type": "bool"
        }
      ],
      "stateMutability": "view",
      "type": "function"
    },
    {
      "inputs": [],
      "name": "rewardPerKw",
      "outputs": [
        {
          "internalType": "uint256",
          "name": "",
          "type": "uint256"
        }
      ],
      "stateMutability": "view",
      "type": "function"
    },
    {
      "inputs": [
        {
          "internalType": "bytes32",
          "name": "slotKey",
          "type": "bytes32"
        },
        {
          "components": [
            {
              "internalType": "address",
              "name": "participant",
              "type": "address"
            },
            {
              "internalType": "uint256",
              "name": "shiftedKw",
              "type": "uint256"
            }
          ],
          "internalType": "struct FlexDAO.FlexParticipant[]",
          "name": "participants",
          "type": "tuple[]"
        }
      ],
      "name": "submitFlexEvent",
      "outputs": [],
      "stateMutability": "nonpayable",
      "type": "function"
    },
    {
      "inputs": [],
      "name": "totalEventsVerified",
      "outputs": [
        {
          "internalType": "uint256",
          "name": "",
          "type": "uint256"
        }
      ],
      "stateMutability": "view",
      "type": "function"
    },
    {
      "inputs": [],
      "name": "totalRewardsIssued",
      "outputs": [
        {
          "internalType": "uint256",
          "name": "",
          "type": "uint256"
        }
      ],
      "stateMutability": "view",
      "type": "function"
    }
  ],
  "bytecode": "0x6080604052600a6003553480156200001657600080fd5b50604051620011253803806200112583398181016040528101906200003c919062000171565b816000806101000a81548173ffffffffffffffffffffffffffffffffffffffff021916908373ffffffffffffffffffffffffffffffffffffffff16021790555033600160006101000a81548173ffffffffffffffffffffffffffffffffffffffff021916908373ffffffffffffffffffffffffffffffffffffffff160217905550806002819055505050620001b8565b600080fd5b600073ffffffffffffffffffffffffffffffffffffffff82169050919050565b6000620000fe82620000d1565b9050919050565b6200011081620000f1565b81146200011c57600080fd5b50565b600081519050620001308162000105565b92915050565b6000819050919050565b6200014b8162000136565b81146200015757600080fd5b50565b6000815190506200016b8162000140565b92915050565b600080604083850312156200018b576200018a620000cc565b5b60006200019b858286016200011f565b9250506020620001ae858286016200015a565b9150509250929050565b610f5d80620001c86000396000f3fe608060405234801561001057600080fd5b50600436106100a95760003560e01c806360fd28291161007157806360fd2829146101525780637c2c0916146101705780637dc0d1d01461018e5780638d76353b146101ac578063c423624d146101ca578063c59d4847146101e8576100a9565b806327e235e3146100ae578063372500ab146100de5780634564b085146100e857806350dc7d2014610104578063570ca73514610134575b600080fd5b6100c860048036038101906100c39190610862565b610209565b6040516100d591906108a8565b60405180910390f35b6100e6610221565b005b61010260048036038101906100fd919061095e565b61033e565b005b61011e600480360381019061011991906109be565b6106cc565b60405161012b9190610a06565b60405180910390f35b61013c6106ec565b6040516101499190610a30565b60405180910390f35b61015a610712565b60405161016791906108a8565b60405180910390f35b610178610718565b60405161018591906108a8565b60405180910390f35b61019661071e565b6040516101a39190610aaa565b60405180910390f35b6101b4610742565b6040516101c191906108a8565b60405180910390f35b6101d2610748565b6040516101df91906108a8565b60405180910390f35b6101f061074e565b6040516102009493929190610ac5565b60405180910390f35b60046020528060005260406000206000915090505481565b6000600460003373ffffffffffffffffffffffffffffffffffffffff1673ffffffffffffffffffffffffffffffffffffffff168152602001908152602001600020549050600081116102a8576040517f08c379a000000000000000000000000000000000000000000000000000000000815260040161029f90610b67565b60405180910390fd5b6000600460003373ffffffffffffffffffffffffffffffffffffffff1673ffffffffffffffffffffffffffffffffffffffff168152602001908152602001600020819055503373ffffffffffffffffffffffffffffffffffffffff167f106f923f993c2149d49b4255ff723acafa1f2d94393f561d3eda32ae348f72418260405161033391906108a8565b60405180910390a250565b600160009054906101000a900473ffffffffffffffffffffffffffffffffffffffff1673ffffffffffffffffffffffffffffffffffffffff163373ffffffffffffffffffffffffffffffffffffffff16146103ce576040517f08c379a00000000000000000000000000000000000000000000000000000000081526004016103c590610bd3565b60405180910390fd5b6005600084815260200190815260200160002060009054906101000a900460ff161561042f576040517f08c379a000000000000000000000000000000000000000000000000000000000815260040161042690610c3f565b60405180910390fd5b60008060009054906101000a900473ffffffffffffffffffffffffffffffffffffffff1673ffffffffffffffffffffffffffffffffffffffff16636960c347856040518263ffffffff1660e01b815260040161048b9190610c6e565b602060405180830381865afa1580156104a8573d6000803e3d6000fd5b505050506040513d601f19601f820116820180604052508101906104cc9190610cb5565b9050600254811015610513576040517f08c379a000000000000000000000000000000000000000000000000000000000815260040161050a90610d54565b60405180910390fd5b60016005600086815260200190815260200160002060006101000a81548160ff0219169083151502179055506006600081548092919061055290610da3565b91905055506000805b848490508110156106855760006103e860035487878581811061058157610580610deb565b5b905060400201602001356105959190610e1a565b61059f9190610e8b565b9050600081036105ae57600190505b80600460008888868181106105c6576105c5610deb565b5b90506040020160000160208101906105de9190610862565b73ffffffffffffffffffffffffffffffffffffffff1673ffffffffffffffffffffffffffffffffffffffff16815260200190815260200160002060008282546106279190610ebc565b9250508190555080600760008282546106409190610ebc565b9250508190555085858381811061065a57610659610deb565b5b905060400201602001358361066f9190610ebc565b925050808061067d90610da3565b91505061055b565b50847f7ff5cd38d23bb170b00a0451bec693b4ba04f67d4adbf337c07a417a02775aae8386869050846040516106bd93929190610ef0565b60405180910390a25050505050565b60056020528060005260406000206000915054906101000a900460ff1681565b600160009054906101000a900473ffffffffffffffffffffffffffffffffffffffff1681565b60025481565b60075481565b60008054906101000a900473ffffffffffffffffffffffffffffffffffffffff1681565b60065481565b60035481565b60008060008060065460075460025460008054906101000a900473ffffffffffffffffffffffffffffffffffffffff1673ffffffffffffffffffffffffffffffffffffffff1663a15b93216040518163ffffffff1660e01b8152600401602060405180830381865afa1580156107c8573d6000803e3d6000fd5b505050506040513d601f19601f820116820180604052508101906107ec9190610cb5565b935093509350935090919293565b600080fd5b600080fd5b600073ffffffffffffffffffffffffffffffffffffffff82169050919050565b600061082f82610804565b9050919050565b61083f81610824565b811461084a57600080fd5b50565b60008135905061085c81610836565b92915050565b600060208284031215610878576108776107fa565b5b60006108868482850161084d565b91505092915050565b6000819050919050565b6108a28161088f565b82525050565b60006020820190506108bd6000830184610899565b92915050565b6000819050919050565b6108d6816108c3565b81146108e157600080fd5b50565b6000813590506108f3816108cd565b92915050565b600080fd5b600080fd5b600080fd5b60008083601f84011261091e5761091d6108f9565b5b8235905067ffffffffffffffff81111561093b5761093a6108fe565b5b60208301915083604082028301111561095757610956610903565b5b9250929050565b600080600060408486031215610977576109766107fa565b5b6000610985868287016108e4565b935050602084013567ffffffffffffffff8111156109a6576109a56107ff565b5b6109b286828701610908565b92509250509250925092565b6000602082840312156109d4576109d36107fa565b5b60006109e2848285016108e4565b91505092915050565b60008115159050919050565b610a00816109eb565b82525050565b6000602082019050610a1b60008301846109f7565b92915050565b610a2a81610824565b82525050565b6000602082019050610a456000830184610a21565b92915050565b6000819050919050565b6000610a70610a6b610a6684610804565b610a4b565b610804565b9050919050565b6000610a8282610a55565b9050919050565b6000610a9482610a77565b9050919050565b610aa481610a89565b82525050565b6000602082019050610abf6000830184610a9b565b92915050565b6000608082019050610ada6000830187610899565b610ae76020830186610899565b610af46040830185610899565b610b016060830184610899565b95945050505050565b600082825260208201905092915050565b7f466c657844414f3a206e6f207265776172647300000000000000000000000000600082015250565b6000610b51601383610b0a565b9150610b5c82610b1b565b602082019050919050565b60006020820190508181036000830152610b8081610b44565b9050919050565b7f466c657844414f3a206e6f74206f70657261746f720000000000000000000000600082015250565b6000610bbd601583610b0a565b9150610bc882610b87565b602082019050919050565b60006020820190508181036000830152610bec81610bb0565b9050919050565b7f466c657844414f3a20736c6f7420616c72656164792070726f63657373656400600082015250565b6000610c29601f83610b0a565b9150610c3482610bf3565b602082019050919050565b60006020820190508181036000830152610c5881610c1c565b9050919050565b610c68816108c3565b82525050565b6000602082019050610c836000830184610c5f565b92915050565b610c928161088f565b8114610c9d57600080fd5b50565b600081519050610caf81610c89565b92915050565b600060208284031215610ccb57610cca6107fa565b5b6000610cd984828501610ca0565b91505092915050565b7f466c657844414f3a20696e74656e736974792062656c6f77207468726573686f60008201527f6c64000000000000000000000000000000000000000000000000000000000000602082015250565b6000610d3e602283610b0a565b9150610d4982610ce2565b604082019050919050565b60006020820190508181036000830152610d6d81610d31565b9050919050565b7f4e487b7100000000000000000000000000000000000000000000000000000000600052601160045260246000fd5b6000610dae8261088f565b91507fffffffffffffffffffffffffffffffffffffffffffffffffffffffffffffffff8203610de057610ddf610d74565b5b600182019050919050565b7f4e487b7100000000000000000000000000000000000000000000000000000000600052603260045260246000fd5b6000610e258261088f565b9150610e308361088f565b9250828202610e3e8161088f565b91508282048414831517610e5557610e54610d74565b5b5092915050565b7f4e487b7100000000000000000000000000000000000000000000000000000000600052601260045260246000fd5b6000610e968261088f565b9150610ea18361088f565b925082610eb157610eb0610e5c565b5b828204905092915050565b6000610ec78261088f565b9150610ed28361088f565b9250828201905080821115610eea57610ee9610d74565b5b92915050565b6000606082019050610f056000830186610899565b610f126020830185610899565b610f1f6040830184610899565b94935050505056fea2646970667358221220070331995feaa03a5e1fe5a4399c8bc9d322835b58bb1803bc9b029cd0cec53c64736f6c63430008120033",
  "linkReferences": {},
  "deployedLinkReferences": {}
}